{
  "_format": "hh-sol-artifact-1",
  "contractName": "MyEpicNFT",
  "sourceName": "contracts/MyEpicNFT.sol",
  "abi": [
    {
      "inputs": [],
      "stateMutability": "nonpayable",
      "type": "constructor"
    },
    {
      "anonymous": false,
      "inputs": [
        {
          "indexed": true,
          "internalType": "address",
          "name": "owner",
          "type": "address"
        },
        {
          "indexed": true,
          "internalType": "address",
          "name": "approved",
          "type": "address"
        },
        {
          "indexed": true,
          "internalType": "uint256",
          "name": "tokenId",
          "type": "uint256"
        }
      ],
      "name": "Approval",
      "type": "event"
    },
    {
      "anonymous": false,
      "inputs": [
        {
          "indexed": true,
          "internalType": "address",
          "name": "owner",
          "type": "address"
        },
        {
          "indexed": true,
          "internalType": "address",
          "name": "operator",
          "type": "address"
        },
        {
          "indexed": false,
          "internalType": "bool",
          "name": "approved",
          "type": "bool"
        }
      ],
      "name": "ApprovalForAll",
      "type": "event"
    },
    {
      "anonymous": false,
      "inputs": [
        {
          "indexed": false,
          "internalType": "address",
          "name": "sender",
          "type": "address"
        },
        {
          "indexed": false,
          "internalType": "uint256",
          "name": "tokenID",
          "type": "uint256"
        }
      ],
      "name": "NewEpicNFTMinted",
      "type": "event"
    },
    {
      "anonymous": false,
      "inputs": [
        {
          "indexed": true,
          "internalType": "address",
          "name": "from",
          "type": "address"
        },
        {
          "indexed": true,
          "internalType": "address",
          "name": "to",
          "type": "address"
        },
        {
          "indexed": true,
          "internalType": "uint256",
          "name": "tokenId",
          "type": "uint256"
        }
      ],
      "name": "Transfer",
      "type": "event"
    },
    {
      "anonymous": false,
      "inputs": [
        {
          "indexed": false,
          "internalType": "uint256",
          "name": "maxSupply",
          "type": "uint256"
        },
        {
          "indexed": false,
          "internalType": "uint256",
          "name": "currentSupply",
          "type": "uint256"
        }
      ],
      "name": "getTotalNFTsMintedSoFar",
      "type": "event"
    },
    {
      "inputs": [
        {
          "internalType": "address",
          "name": "to",
          "type": "address"
        },
        {
          "internalType": "uint256",
          "name": "tokenId",
          "type": "uint256"
        }
      ],
      "name": "approve",
      "outputs": [],
      "stateMutability": "nonpayable",
      "type": "function"
    },
    {
      "inputs": [
        {
          "internalType": "address",
          "name": "owner",
          "type": "address"
        }
      ],
      "name": "balanceOf",
      "outputs": [
        {
          "internalType": "uint256",
          "name": "",
          "type": "uint256"
        }
      ],
      "stateMutability": "view",
      "type": "function"
    },
    {
      "inputs": [
        {
          "internalType": "uint256",
          "name": "tokenId",
          "type": "uint256"
        }
      ],
      "name": "getApproved",
      "outputs": [
        {
          "internalType": "address",
          "name": "",
          "type": "address"
        }
      ],
      "stateMutability": "view",
      "type": "function"
    },
    {
      "inputs": [],
      "name": "getCurrentTotalNFTs",
      "outputs": [
        {
          "internalType": "uint256",
          "name": "",
          "type": "uint256"
        }
      ],
      "stateMutability": "view",
      "type": "function"
    },
    {
      "inputs": [],
      "name": "getTotalNFTs",
      "outputs": [
        {
          "internalType": "uint256",
          "name": "",
          "type": "uint256"
        }
      ],
      "stateMutability": "view",
      "type": "function"
    },
    {
      "inputs": [
        {
          "internalType": "address",
          "name": "owner",
          "type": "address"
        },
        {
          "internalType": "address",
          "name": "operator",
          "type": "address"
        }
      ],
      "name": "isApprovedForAll",
      "outputs": [
        {
          "internalType": "bool",
          "name": "",
          "type": "bool"
        }
      ],
      "stateMutability": "view",
      "type": "function"
    },
    {
      "inputs": [],
      "name": "makeEpicNFT",
      "outputs": [],
      "stateMutability": "nonpayable",
      "type": "function"
    },
    {
      "inputs": [],
      "name": "name",
      "outputs": [
        {
          "internalType": "string",
          "name": "",
          "type": "string"
        }
      ],
      "stateMutability": "view",
      "type": "function"
    },
    {
      "inputs": [
        {
          "internalType": "uint256",
          "name": "tokenId",
          "type": "uint256"
        }
      ],
      "name": "ownerOf",
      "outputs": [
        {
          "internalType": "address",
          "name": "",
          "type": "address"
        }
      ],
      "stateMutability": "view",
      "type": "function"
    },
    {
      "inputs": [
        {
          "internalType": "uint256",
          "name": "tokenId",
          "type": "uint256"
        }
      ],
      "name": "pickRandomColor",
      "outputs": [
        {
          "internalType": "string",
          "name": "",
          "type": "string"
        }
      ],
      "stateMutability": "view",
      "type": "function"
    },
    {
      "inputs": [
        {
          "internalType": "uint256",
          "name": "_tokenid",
          "type": "uint256"
        }
      ],
      "name": "pickRandomFirstWord",
      "outputs": [
        {
          "internalType": "string",
          "name": "",
          "type": "string"
        }
      ],
      "stateMutability": "view",
      "type": "function"
    },
    {
      "inputs": [
        {
          "internalType": "uint256",
          "name": "tokenId",
          "type": "uint256"
        }
      ],
      "name": "pickRandomSecondWord",
      "outputs": [
        {
          "internalType": "string",
          "name": "",
          "type": "string"
        }
      ],
      "stateMutability": "view",
      "type": "function"
    },
    {
      "inputs": [
        {
          "internalType": "uint256",
          "name": "tokenId",
          "type": "uint256"
        }
      ],
      "name": "pickRandomThirdWord",
      "outputs": [
        {
          "internalType": "string",
          "name": "",
          "type": "string"
        }
      ],
      "stateMutability": "view",
      "type": "function"
    },
    {
      "inputs": [
        {
          "internalType": "address",
          "name": "from",
          "type": "address"
        },
        {
          "internalType": "address",
          "name": "to",
          "type": "address"
        },
        {
          "internalType": "uint256",
          "name": "tokenId",
          "type": "uint256"
        }
      ],
      "name": "safeTransferFrom",
      "outputs": [],
      "stateMutability": "nonpayable",
      "type": "function"
    },
    {
      "inputs": [
        {
          "internalType": "address",
          "name": "from",
          "type": "address"
        },
        {
          "internalType": "address",
          "name": "to",
          "type": "address"
        },
        {
          "internalType": "uint256",
          "name": "tokenId",
          "type": "uint256"
        },
        {
          "internalType": "bytes",
          "name": "_data",
          "type": "bytes"
        }
      ],
      "name": "safeTransferFrom",
      "outputs": [],
      "stateMutability": "nonpayable",
      "type": "function"
    },
    {
      "inputs": [
        {
          "internalType": "address",
          "name": "operator",
          "type": "address"
        },
        {
          "internalType": "bool",
          "name": "approved",
          "type": "bool"
        }
      ],
      "name": "setApprovalForAll",
      "outputs": [],
      "stateMutability": "nonpayable",
      "type": "function"
    },
    {
      "inputs": [
        {
          "internalType": "bytes4",
          "name": "interfaceId",
          "type": "bytes4"
        }
      ],
      "name": "supportsInterface",
      "outputs": [
        {
          "internalType": "bool",
          "name": "",
          "type": "bool"
        }
      ],
      "stateMutability": "view",
      "type": "function"
    },
    {
      "inputs": [],
      "name": "symbol",
      "outputs": [
        {
          "internalType": "string",
          "name": "",
          "type": "string"
        }
      ],
      "stateMutability": "view",
      "type": "function"
    },
    {
      "inputs": [
        {
          "internalType": "uint256",
          "name": "tokenId",
          "type": "uint256"
        }
      ],
      "name": "tokenURI",
      "outputs": [
        {
          "internalType": "string",
          "name": "",
          "type": "string"
        }
      ],
      "stateMutability": "view",
      "type": "function"
    },
    {
      "inputs": [
        {
          "internalType": "address",
          "name": "from",
          "type": "address"
        },
        {
          "internalType": "address",
          "name": "to",
          "type": "address"
        },
        {
          "internalType": "uint256",
          "name": "tokenId",
          "type": "uint256"
        }
      ],
      "name": "transferFrom",
      "outputs": [],
      "stateMutability": "nonpayable",
      "type": "function"
    }
  ],
  "bytecode": "0x6080604052600a60075560405180610100016040528060d38152602001620047eb60d39139600890805190602001906200003b92919062000831565b50604051806080016040528060568152602001620048be60569139600990805190602001906200006d92919062000831565b506040518060c001604052806040518060400160405280600581526020017f50697a7a6100000000000000000000000000000000000000000000000000000081525081526020016040518060400160405280600681526020017f427572676572000000000000000000000000000000000000000000000000000081525081526020016040518060400160405280600581526020017f526f6c6c7300000000000000000000000000000000000000000000000000000081525081526020016040518060400160405280600681526020017f4472696e6b73000000000000000000000000000000000000000000000000000081525081526020016040518060400160405280600681526020017f4e6163686f73000000000000000000000000000000000000000000000000000081525081526020016040518060400160405280600581526020017f4272656164000000000000000000000000000000000000000000000000000000815250815250600a906006620001eb929190620008c2565b506040518060c001604052806040518060400160405280600881526020017f506f72747567616c00000000000000000000000000000000000000000000000081525081526020016040518060400160405280600581526020017f4974616c7900000000000000000000000000000000000000000000000000000081525081526020016040518060400160405280600781526020017f4765726d616e790000000000000000000000000000000000000000000000000081525081526020016040518060400160405280600981526020017f417267656e74696e61000000000000000000000000000000000000000000000081525081526020016040518060400160405280600581526020017f57616c657300000000000000000000000000000000000000000000000000000081525081526020016040518060400160405280600681526020017f4272617a696c0000000000000000000000000000000000000000000000000000815250815250600b90600662000369929190620008c2565b506040518060c001604052806040518060400160405280600781526020017f526f6e616c646f0000000000000000000000000000000000000000000000000081525081526020016040518060400160405280600781526020017f426f6e756363690000000000000000000000000000000000000000000000000081525081526020016040518060400160405280600681526020017f4d756c6c6572000000000000000000000000000000000000000000000000000081525081526020016040518060400160405280600581526020017f4d6573736900000000000000000000000000000000000000000000000000000081525081526020016040518060400160405280600481526020017f42616c650000000000000000000000000000000000000000000000000000000081525081526020016040518060400160405280600681526020017f4e65796d61720000000000000000000000000000000000000000000000000000815250815250600c906006620004e7929190620008c2565b506040518060c001604052806040518060400160405280600381526020017f726564000000000000000000000000000000000000000000000000000000000081525081526020016040518060400160405280600781526020017f233038433241380000000000000000000000000000000000000000000000000081525081526020016040518060400160405280600581526020017f626c61636b00000000000000000000000000000000000000000000000000000081525081526020016040518060400160405280600681526020017f79656c6c6f77000000000000000000000000000000000000000000000000000081525081526020016040518060400160405280600481526020017f626c75650000000000000000000000000000000000000000000000000000000081525081526020016040518060400160405280600581526020017f677265656e000000000000000000000000000000000000000000000000000000815250815250600d90600662000665929190620008c2565b503480156200067357600080fd5b506040518060400160405280600881526020017f44616b73684e46540000000000000000000000000000000000000000000000008152506040518060400160405280600581526020017f44414b53480000000000000000000000000000000000000000000000000000008152508160009080519060200190620006f892919062000831565b5080600190805190602001906200071192919062000831565b5050506200075f6040518060400160405280601881526020017f54686973206973206d79204e465420436f6e74726163742100000000000000008152506200076560201b620013161760201c565b62000ae3565b62000805816040516024016200077c9190620009f7565b6040516020818303038152906040527f41304fac000000000000000000000000000000000000000000000000000000007bffffffffffffffffffffffffffffffffffffffffffffffffffffffff19166020820180517bffffffffffffffffffffffffffffffffffffffffffffffffffffffff83818316178352505050506200080860201b60201c565b50565b60008151905060006a636f6e736f6c652e6c6f679050602083016000808483855afa5050505050565b8280546200083f9062000a6d565b90600052602060002090601f016020900481019282620008635760008555620008af565b82601f106200087e57805160ff1916838001178555620008af565b82800160010185558215620008af579182015b82811115620008ae57825182559160200191906001019062000891565b5b509050620008be919062000929565b5090565b82805482825590600052602060002090810192821562000916579160200282015b82811115620009155782518290805190602001906200090492919062000831565b5091602001919060010190620008e3565b5b50905062000925919062000948565b5090565b5b80821115620009445760008160009055506001016200092a565b5090565b5b808211156200096c576000818162000962919062000970565b5060010162000949565b5090565b5080546200097e9062000a6d565b6000825580601f10620009925750620009b3565b601f016020900490600052602060002090810190620009b2919062000929565b5b50565b6000620009c38262000a1b565b620009cf818562000a26565b9350620009e181856020860162000a37565b620009ec8162000ad2565b840191505092915050565b6000602082019050818103600083015262000a138184620009b6565b905092915050565b600081519050919050565b600082825260208201905092915050565b60005b8381101562000a5757808201518184015260208101905062000a3a565b8381111562000a67576000848401525b50505050565b6000600282049050600182168062000a8657607f821691505b6020821081141562000a9d5762000a9c62000aa3565b5b50919050565b7f4e487b7100000000000000000000000000000000000000000000000000000000600052602260045260246000fd5b6000601f19601f8301169050919050565b613cf88062000af36000396000f3fe608060405234801561001057600080fd5b506004361061012c5760003560e01c80636352211e116100ad578063b71eafc811610071578063b71eafc814610355578063b88d4fde14610373578063c575757a1461038f578063c87b56dd146103bf578063e985e9c5146103ef5761012c565b80636352211e1461028b57806370a08231146102bb57806395d89b41146102eb578063a22cb46514610309578063b187301f146103255761012c565b80632de38d68116100f45780632de38d68146101e757806330bdb3511461021757806342842e0e14610235578063514dc8c61461025157806362b41f49146102815761012c565b806301ffc9a71461013157806306fdde0314610161578063081812fc1461017f578063095ea7b3146101af57806323b872dd146101cb575b600080fd5b61014b6004803603810190610146919061270e565b61041f565b6040516101589190612e9a565b60405180910390f35b610169610501565b6040516101769190612eb5565b60405180910390f35b61019960048036038101906101949190612760565b610593565b6040516101a69190612e0a565b60405180910390f35b6101c960048036038101906101c491906126d2565b610618565b005b6101e560048036038101906101e091906125cc565b610730565b005b61020160048036038101906101fc9190612760565b610790565b60405161020e9190612eb5565b60405180910390f35b61021f6108ae565b60405161022c9190613135565b60405180910390f35b61024f600480360381019061024a91906125cc565b6108b8565b005b61026b60048036038101906102669190612760565b6108d8565b6040516102789190612eb5565b60405180910390f35b6102896109f6565b005b6102a560048036038101906102a09190612760565b610c6f565b6040516102b29190612e0a565b60405180910390f35b6102d560048036038101906102d09190612567565b610d21565b6040516102e29190613135565b60405180910390f35b6102f3610dd9565b6040516103009190612eb5565b60405180910390f35b610323600480360381019061031e9190612696565b610e6b565b005b61033f600480360381019061033a9190612760565b610e81565b60405161034c9190612eb5565b60405180910390f35b61035d610f9f565b60405161036a9190613135565b60405180910390f35b61038d6004803603810190610388919061261b565b610fb0565b005b6103a960048036038101906103a49190612760565b611012565b6040516103b69190612eb5565b60405180910390f35b6103d960048036038101906103d49190612760565b611130565b6040516103e69190612eb5565b60405180910390f35b61040960048036038101906104049190612590565b611282565b6040516104169190612e9a565b60405180910390f35b60007f80ac58cd000000000000000000000000000000000000000000000000000000007bffffffffffffffffffffffffffffffffffffffffffffffffffffffff1916827bffffffffffffffffffffffffffffffffffffffffffffffffffffffff191614806104ea57507f5b5e139f000000000000000000000000000000000000000000000000000000007bffffffffffffffffffffffffffffffffffffffffffffffffffffffff1916827bffffffffffffffffffffffffffffffffffffffffffffffffffffffff1916145b806104fa57506104f9826113af565b5b9050919050565b606060008054610510906133f2565b80601f016020809104026020016040519081016040528092919081815260200182805461053c906133f2565b80156105895780601f1061055e57610100808354040283529160200191610589565b820191906000526020600020905b81548152906001019060200180831161056c57829003601f168201915b5050505050905090565b600061059e82611419565b6105dd576040517f08c379a00000000000000000000000000000000000000000000000000000000081526004016105d490613095565b60405180910390fd5b6004600083815260200190815260200160002060009054906101000a900473ffffffffffffffffffffffffffffffffffffffff169050919050565b600061062382610c6f565b90508073ffffffffffffffffffffffffffffffffffffffff168373ffffffffffffffffffffffffffffffffffffffff161415610694576040517f08c379a000000000000000000000000000000000000000000000000000000000815260040161068b906130f5565b60405180910390fd5b8073ffffffffffffffffffffffffffffffffffffffff166106b3611485565b73ffffffffffffffffffffffffffffffffffffffff1614806106e257506106e1816106dc611485565b611282565b5b610721576040517f08c379a000000000000000000000000000000000000000000000000000000000815260040161071890612fd5565b60405180910390fd5b61072b838361148d565b505050565b61074161073b611485565b82611546565b610780576040517f08c379a000000000000000000000000000000000000000000000000000000000815260040161077790613115565b60405180910390fd5b61078b838383611624565b505050565b606060006107c46107a08461188b565b6040516020016107b09190612da4565b604051602081830303815290604052611a38565b9050600a80549050816107d7919061349e565b9050600a8181548110610813577f4e487b7100000000000000000000000000000000000000000000000000000000600052603260045260246000fd5b906000526020600020018054610828906133f2565b80601f0160208091040260200160405190810160405280929190818152602001828054610854906133f2565b80156108a15780601f10610876576101008083540402835291602001916108a1565b820191906000526020600020905b81548152906001019060200180831161088457829003601f168201915b5050505050915050919050565b6000600754905090565b6108d383838360405180602001604052806000815250610fb0565b505050565b6060600061090c6108e88461188b565b6040516020016108f89190612de8565b604051602081830303815290604052611a38565b9050600d805490508161091f919061349e565b9050600d818154811061095b577f4e487b7100000000000000000000000000000000000000000000000000000000600052603260045260246000fd5b906000526020600020018054610970906133f2565b80601f016020809104026020016040519081016040528092919081815260200182805461099c906133f2565b80156109e95780601f106109be576101008083540402835291602001916109e9565b820191906000526020600020905b8154815290600101906020018083116109cc57829003601f168201915b5050505050915050919050565b6000610a02600e611a6b565b90506007548110610a48576040517f08c379a0000000000000000000000000000000000000000000000000000000008152600401610a3f906130d5565b60405180910390fd5b6000610a5382610790565b90506000610a6083610e81565b90506000610a6d84611012565b90506000838383604051602001610a8693929190612ca1565b60405160208183030381529060405290506000610aa2866108d8565b90506000600882600985604051602001610abf9493929190612cd2565b60405160208183030381529060405290506000610b0484610adf84611a79565b604051602001610af0929190612d5f565b604051602081830303815290604052611a79565b9050600081604051602001610b199190612dc6565b6040516020818303038152906040529050610b686040518060400160405280601581526020017f0a2d2d2d2d2d2d2d2d2d2d2d2d2d2d2d2d2d2d2d2d0000000000000000000000815250611316565b610b7181611316565b610baf6040518060400160405280601581526020017f2d2d2d2d2d2d2d2d2d2d2d2d2d2d2d2d2d2d2d2d0a0000000000000000000000815250611316565b610bb9338a611c03565b610bc38982611c21565b610be6604051806060016040528060268152602001613c9d602691398a33611c95565b7febb98688741ffa4c7589bf325de30cf7becb63de567842e1ccdb6cb949fdc82c338a604051610c17929190612e71565b60405180910390a17f813268505ad13bd9105919c2378c0326d0aca78e5fd42ee3ff7028a390409ec36007548a604051610c52929190613150565b60405180910390a1610c64600e611d34565b505050505050505050565b6000806002600084815260200190815260200160002060009054906101000a900473ffffffffffffffffffffffffffffffffffffffff169050600073ffffffffffffffffffffffffffffffffffffffff168173ffffffffffffffffffffffffffffffffffffffff161415610d18576040517f08c379a0000000000000000000000000000000000000000000000000000000008152600401610d0f90613015565b60405180910390fd5b80915050919050565b60008073ffffffffffffffffffffffffffffffffffffffff168273ffffffffffffffffffffffffffffffffffffffff161415610d92576040517f08c379a0000000000000000000000000000000000000000000000000000000008152600401610d8990612ff5565b60405180910390fd5b600360008373ffffffffffffffffffffffffffffffffffffffff1673ffffffffffffffffffffffffffffffffffffffff168152602001908152602001600020549050919050565b606060018054610de8906133f2565b80601f0160208091040260200160405190810160405280929190818152602001828054610e14906133f2565b8015610e615780601f10610e3657610100808354040283529160200191610e61565b820191906000526020600020905b815481529060010190602001808311610e4457829003601f168201915b5050505050905090565b610e7d610e76611485565b8383611d4a565b5050565b60606000610eb5610e918461188b565b604051602001610ea19190612d3d565b604051602081830303815290604052611a38565b9050600b8054905081610ec8919061349e565b9050600b8181548110610f04577f4e487b7100000000000000000000000000000000000000000000000000000000600052603260045260246000fd5b906000526020600020018054610f19906133f2565b80601f0160208091040260200160405190810160405280929190818152602001828054610f45906133f2565b8015610f925780601f10610f6757610100808354040283529160200191610f92565b820191906000526020600020905b815481529060010190602001808311610f7557829003601f168201915b5050505050915050919050565b6000610fab600e611a6b565b905090565b610fc1610fbb611485565b83611546565b611000576040517f08c379a0000000000000000000000000000000000000000000000000000000008152600401610ff790613115565b60405180910390fd5b61100c84848484611eb7565b50505050565b606060006110466110228461188b565b6040516020016110329190612d1b565b604051602081830303815290604052611a38565b9050600c8054905081611059919061349e565b9050600c8181548110611095577f4e487b7100000000000000000000000000000000000000000000000000000000600052603260045260246000fd5b9060005260206000200180546110aa906133f2565b80601f01602080910402602001604051908101604052809291908181526020018280546110d6906133f2565b80156111235780601f106110f857610100808354040283529160200191611123565b820191906000526020600020905b81548152906001019060200180831161110657829003601f168201915b5050505050915050919050565b606061113b82611419565b61117a576040517f08c379a000000000000000000000000000000000000000000000000000000000815260040161117190613075565b60405180910390fd5b600060066000848152602001908152602001600020805461119a906133f2565b80601f01602080910402602001604051908101604052809291908181526020018280546111c6906133f2565b80156112135780601f106111e857610100808354040283529160200191611213565b820191906000526020600020905b8154815290600101906020018083116111f657829003601f168201915b505050505090506000611224611f13565b905060008151141561123a57819250505061127d565b60008251111561126f578082604051602001611257929190612c7d565b6040516020818303038152906040529250505061127d565b61127884611f2a565b925050505b919050565b6000600560008473ffffffffffffffffffffffffffffffffffffffff1673ffffffffffffffffffffffffffffffffffffffff16815260200190815260200160002060008373ffffffffffffffffffffffffffffffffffffffff1673ffffffffffffffffffffffffffffffffffffffff16815260200190815260200160002060009054906101000a900460ff16905092915050565b6113ac8160405160240161132a9190612eb5565b6040516020818303038152906040527f41304fac000000000000000000000000000000000000000000000000000000007bffffffffffffffffffffffffffffffffffffffffffffffffffffffff19166020820180517bffffffffffffffffffffffffffffffffffffffffffffffffffffffff8381831617835250505050611fd1565b50565b60007f01ffc9a7000000000000000000000000000000000000000000000000000000007bffffffffffffffffffffffffffffffffffffffffffffffffffffffff1916827bffffffffffffffffffffffffffffffffffffffffffffffffffffffff1916149050919050565b60008073ffffffffffffffffffffffffffffffffffffffff166002600084815260200190815260200160002060009054906101000a900473ffffffffffffffffffffffffffffffffffffffff1673ffffffffffffffffffffffffffffffffffffffff1614159050919050565b600033905090565b816004600083815260200190815260200160002060006101000a81548173ffffffffffffffffffffffffffffffffffffffff021916908373ffffffffffffffffffffffffffffffffffffffff160217905550808273ffffffffffffffffffffffffffffffffffffffff1661150083610c6f565b73ffffffffffffffffffffffffffffffffffffffff167f8c5be1e5ebec7d5bd14f71427d1e84f3dd0314c0f7b2291e5b200ac8c7c3b92560405160405180910390a45050565b600061155182611419565b611590576040517f08c379a000000000000000000000000000000000000000000000000000000000815260040161158790612fb5565b60405180910390fd5b600061159b83610c6f565b90508073ffffffffffffffffffffffffffffffffffffffff168473ffffffffffffffffffffffffffffffffffffffff1614806115dd57506115dc8185611282565b5b8061161b57508373ffffffffffffffffffffffffffffffffffffffff1661160384610593565b73ffffffffffffffffffffffffffffffffffffffff16145b91505092915050565b8273ffffffffffffffffffffffffffffffffffffffff1661164482610c6f565b73ffffffffffffffffffffffffffffffffffffffff161461169a576040517f08c379a000000000000000000000000000000000000000000000000000000000815260040161169190612f35565b60405180910390fd5b600073ffffffffffffffffffffffffffffffffffffffff168273ffffffffffffffffffffffffffffffffffffffff16141561170a576040517f08c379a000000000000000000000000000000000000000000000000000000000815260040161170190612f75565b60405180910390fd5b611715838383611ffa565b61172060008261148d565b6001600360008573ffffffffffffffffffffffffffffffffffffffff1673ffffffffffffffffffffffffffffffffffffffff16815260200190815260200160002060008282546117709190613308565b925050819055506001600360008473ffffffffffffffffffffffffffffffffffffffff1673ffffffffffffffffffffffffffffffffffffffff16815260200190815260200160002060008282546117c79190613227565b92505081905550816002600083815260200190815260200160002060006101000a81548173ffffffffffffffffffffffffffffffffffffffff021916908373ffffffffffffffffffffffffffffffffffffffff160217905550808273ffffffffffffffffffffffffffffffffffffffff168473ffffffffffffffffffffffffffffffffffffffff167fddf252ad1be2c89b69c2b068fc378daa952ba7f163c4a11628f55a4df523b3ef60405160405180910390a4611886838383611fff565b505050565b606060008214156118d3576040518060400160405280600181526020017f30000000000000000000000000000000000000000000000000000000000000008152509050611a33565b600082905060005b600082146119055780806118ee90613455565b915050600a826118fe919061327d565b91506118db565b60008167ffffffffffffffff811115611947577f4e487b7100000000000000000000000000000000000000000000000000000000600052604160045260246000fd5b6040519080825280601f01601f1916602001820160405280156119795781602001600182028036833780820191505090505b5090505b60008514611a2c576001826119929190613308565b9150600a856119a1919061349e565b60306119ad9190613227565b60f81b8183815181106119e9577f4e487b7100000000000000000000000000000000000000000000000000000000600052603260045260246000fd5b60200101907effffffffffffffffffffffffffffffffffffffffffffffffffffffffffffff1916908160001a905350600a85611a25919061327d565b945061197d565b8093505050505b919050565b600081604051602001611a4b9190612c66565b6040516020818303038152906040528051906020012060001c9050919050565b600081600001549050919050565b6060600082511415611a9c57604051806020016040528060008152509050611bfe565b6000604051806060016040528060408152602001613c5d6040913990506000600360028551611acb9190613227565b611ad5919061327d565b6004611ae191906132ae565b67ffffffffffffffff811115611b20577f4e487b7100000000000000000000000000000000000000000000000000000000600052604160045260246000fd5b6040519080825280601f01601f191660200182016040528015611b525781602001600182028036833780820191505090505b509050600182016020820185865187015b80821015611bbe576003820191508151603f8160121c168501518453600184019350603f81600c1c168501518453600184019350603f8160061c168501518453600184019350603f8116850151845360018401935050611b63565b5050600386510660018114611bda5760028114611bed57611bf5565b603d6001830353603d6002830353611bf5565b603d60018303535b50505080925050505b919050565b611c1d828260405180602001604052806000815250612004565b5050565b611c2a82611419565b611c69576040517f08c379a0000000000000000000000000000000000000000000000000000000008152600401611c6090613035565b60405180910390fd5b80600660008481526020019081526020016000209080519060200190611c909291906123f3565b505050565b611d2f838383604051602401611cad93929190612ed7565b6040516020818303038152906040527fe3849f79000000000000000000000000000000000000000000000000000000007bffffffffffffffffffffffffffffffffffffffffffffffffffffffff19166020820180517bffffffffffffffffffffffffffffffffffffffffffffffffffffffff8381831617835250505050611fd1565b505050565b6001816000016000828254019250508190555050565b8173ffffffffffffffffffffffffffffffffffffffff168373ffffffffffffffffffffffffffffffffffffffff161415611db9576040517f08c379a0000000000000000000000000000000000000000000000000000000008152600401611db090612f95565b60405180910390fd5b80600560008573ffffffffffffffffffffffffffffffffffffffff1673ffffffffffffffffffffffffffffffffffffffff16815260200190815260200160002060008473ffffffffffffffffffffffffffffffffffffffff1673ffffffffffffffffffffffffffffffffffffffff16815260200190815260200160002060006101000a81548160ff0219169083151502179055508173ffffffffffffffffffffffffffffffffffffffff168373ffffffffffffffffffffffffffffffffffffffff167f17307eab39ab6107e8899845ad3d59bd9653f200f220920489ca2b5937696c3183604051611eaa9190612e9a565b60405180910390a3505050565b611ec2848484611624565b611ece8484848461205f565b611f0d576040517f08c379a0000000000000000000000000000000000000000000000000000000008152600401611f0490612f15565b60405180910390fd5b50505050565b606060405180602001604052806000815250905090565b6060611f3582611419565b611f74576040517f08c379a0000000000000000000000000000000000000000000000000000000008152600401611f6b906130b5565b60405180910390fd5b6000611f7e611f13565b90506000815111611f9e5760405180602001604052806000815250611fc9565b80611fa88461188b565b604051602001611fb9929190612c7d565b6040516020818303038152906040525b915050919050565b60008151905060006a636f6e736f6c652e6c6f679050602083016000808483855afa5050505050565b505050565b505050565b61200e83836121f6565b61201b600084848461205f565b61205a576040517f08c379a000000000000000000000000000000000000000000000000000000000815260040161205190612f15565b60405180910390fd5b505050565b60006120808473ffffffffffffffffffffffffffffffffffffffff166123d0565b156121e9578373ffffffffffffffffffffffffffffffffffffffff1663150b7a026120a9611485565b8786866040518563ffffffff1660e01b81526004016120cb9493929190612e25565b602060405180830381600087803b1580156120e557600080fd5b505af192505050801561211657506040513d601f19601f820116820180604052508101906121139190612737565b60015b612199573d8060008114612146576040519150601f19603f3d011682016040523d82523d6000602084013e61214b565b606091505b50600081511415612191576040517f08c379a000000000000000000000000000000000000000000000000000000000815260040161218890612f15565b60405180910390fd5b805181602001fd5b63150b7a0260e01b7bffffffffffffffffffffffffffffffffffffffffffffffffffffffff1916817bffffffffffffffffffffffffffffffffffffffffffffffffffffffff1916149150506121ee565b600190505b949350505050565b600073ffffffffffffffffffffffffffffffffffffffff168273ffffffffffffffffffffffffffffffffffffffff161415612266576040517f08c379a000000000000000000000000000000000000000000000000000000000815260040161225d90613055565b60405180910390fd5b61226f81611419565b156122af576040517f08c379a00000000000000000000000000000000000000000000000000000000081526004016122a690612f55565b60405180910390fd5b6122bb60008383611ffa565b6001600360008473ffffffffffffffffffffffffffffffffffffffff1673ffffffffffffffffffffffffffffffffffffffff168152602001908152602001600020600082825461230b9190613227565b92505081905550816002600083815260200190815260200160002060006101000a81548173ffffffffffffffffffffffffffffffffffffffff021916908373ffffffffffffffffffffffffffffffffffffffff160217905550808273ffffffffffffffffffffffffffffffffffffffff16600073ffffffffffffffffffffffffffffffffffffffff167fddf252ad1be2c89b69c2b068fc378daa952ba7f163c4a11628f55a4df523b3ef60405160405180910390a46123cc60008383611fff565b5050565b6000808273ffffffffffffffffffffffffffffffffffffffff163b119050919050565b8280546123ff906133f2565b90600052602060002090601f0160209004810192826124215760008555612468565b82601f1061243a57805160ff1916838001178555612468565b82800160010185558215612468579182015b8281111561246757825182559160200191906001019061244c565b5b5090506124759190612479565b5090565b5b8082111561249257600081600090555060010161247a565b5090565b60006124a96124a48461319e565b613179565b9050828152602081018484840111156124c157600080fd5b6124cc8482856133b0565b509392505050565b6000813590506124e381613c00565b92915050565b6000813590506124f881613c17565b92915050565b60008135905061250d81613c2e565b92915050565b60008151905061252281613c2e565b92915050565b600082601f83011261253957600080fd5b8135612549848260208601612496565b91505092915050565b60008135905061256181613c45565b92915050565b60006020828403121561257957600080fd5b6000612587848285016124d4565b91505092915050565b600080604083850312156125a357600080fd5b60006125b1858286016124d4565b92505060206125c2858286016124d4565b9150509250929050565b6000806000606084860312156125e157600080fd5b60006125ef868287016124d4565b9350506020612600868287016124d4565b925050604061261186828701612552565b9150509250925092565b6000806000806080858703121561263157600080fd5b600061263f878288016124d4565b9450506020612650878288016124d4565b935050604061266187828801612552565b925050606085013567ffffffffffffffff81111561267e57600080fd5b61268a87828801612528565b91505092959194509250565b600080604083850312156126a957600080fd5b60006126b7858286016124d4565b92505060206126c8858286016124e9565b9150509250929050565b600080604083850312156126e557600080fd5b60006126f3858286016124d4565b925050602061270485828601612552565b9150509250929050565b60006020828403121561272057600080fd5b600061272e848285016124fe565b91505092915050565b60006020828403121561274957600080fd5b600061275784828501612513565b91505092915050565b60006020828403121561277257600080fd5b600061278084828501612552565b91505092915050565b6127928161333c565b82525050565b6127a18161334e565b82525050565b60006127b2826131e4565b6127bc81856131fa565b93506127cc8185602086016133bf565b6127d58161358b565b840191505092915050565b60006127eb826131ef565b6127f5818561320b565b93506128058185602086016133bf565b61280e8161358b565b840191505092915050565b6000612824826131ef565b61282e818561321c565b935061283e8185602086016133bf565b80840191505092915050565b60008154612857816133f2565b612861818661321c565b9450600182166000811461287c576001811461288d576128c0565b60ff198316865281860193506128c0565b612896856131cf565b60005b838110156128b857815481890152600182019150602081019050612899565b838801955050505b50505092915050565b60006128d660328361320b565b91506128e18261359c565b604082019050919050565b60006128f960258361320b565b9150612904826135eb565b604082019050919050565b600061291c601c8361320b565b91506129278261363a565b602082019050919050565b600061293f600a8361321c565b915061294a82613663565b600a82019050919050565b600061296260248361320b565b915061296d8261368c565b604082019050919050565b600061298560198361320b565b9150612990826136db565b602082019050919050565b60006129a860608361321c565b91506129b382613704565b606082019050919050565b60006129cb600b8361321c565b91506129d682613779565b600b82019050919050565b60006129ee602c8361320b565b91506129f9826137a2565b604082019050919050565b6000612a11600d8361321c565b9150612a1c826137f1565b600d82019050919050565b6000612a3460388361320b565b9150612a3f8261381a565b604082019050919050565b6000612a57602a8361320b565b9150612a6282613869565b604082019050919050565b6000612a7a60298361320b565b9150612a85826138b8565b604082019050919050565b6000612a9d602e8361320b565b9150612aa882613907565b604082019050919050565b6000612ac060028361321c565b9150612acb82613956565b600282019050919050565b6000612ae360208361320b565b9150612aee8261397f565b602082019050919050565b6000612b0660318361320b565b9150612b11826139a8565b604082019050919050565b6000612b29602c8361320b565b9150612b34826139f7565b604082019050919050565b6000612b4c602f8361320b565b9150612b5782613a46565b604082019050919050565b6000612b6f600a8361321c565b9150612b7a82613a95565b600a82019050919050565b6000612b9260118361320b565b9150612b9d82613abe565b602082019050919050565b6000612bb560218361320b565b9150612bc082613ae7565b604082019050919050565b6000612bd8600a8361321c565b9150612be382613b36565b600a82019050919050565b6000612bfb601d8361321c565b9150612c0682613b5f565b601d82019050919050565b6000612c1e60318361320b565b9150612c2982613b88565b604082019050919050565b6000612c4160058361321c565b9150612c4c82613bd7565b600582019050919050565b612c60816133a6565b82525050565b6000612c728284612819565b915081905092915050565b6000612c898285612819565b9150612c958284612819565b91508190509392505050565b6000612cad8286612819565b9150612cb98285612819565b9150612cc58284612819565b9150819050949350505050565b6000612cde828761284a565b9150612cea8286612819565b9150612cf6828561284a565b9150612d028284612819565b9150612d0d82612a04565b915081905095945050505050565b6000612d2682612932565b9150612d328284612819565b915081905092915050565b6000612d48826129be565b9150612d548284612819565b915081905092915050565b6000612d6a82612b62565b9150612d768285612819565b9150612d818261299b565b9150612d8d8284612819565b9150612d9882612ab3565b91508190509392505050565b6000612daf82612bcb565b9150612dbb8284612819565b915081905092915050565b6000612dd182612bee565b9150612ddd8284612819565b915081905092915050565b6000612df382612c34565b9150612dff8284612819565b915081905092915050565b6000602082019050612e1f6000830184612789565b92915050565b6000608082019050612e3a6000830187612789565b612e476020830186612789565b612e546040830185612c57565b8181036060830152612e6681846127a7565b905095945050505050565b6000604082019050612e866000830185612789565b612e936020830184612c57565b9392505050565b6000602082019050612eaf6000830184612798565b92915050565b60006020820190508181036000830152612ecf81846127e0565b905092915050565b60006060820190508181036000830152612ef181866127e0565b9050612f006020830185612c57565b612f0d6040830184612789565b949350505050565b60006020820190508181036000830152612f2e816128c9565b9050919050565b60006020820190508181036000830152612f4e816128ec565b9050919050565b60006020820190508181036000830152612f6e8161290f565b9050919050565b60006020820190508181036000830152612f8e81612955565b9050919050565b60006020820190508181036000830152612fae81612978565b9050919050565b60006020820190508181036000830152612fce816129e1565b9050919050565b60006020820190508181036000830152612fee81612a27565b9050919050565b6000602082019050818103600083015261300e81612a4a565b9050919050565b6000602082019050818103600083015261302e81612a6d565b9050919050565b6000602082019050818103600083015261304e81612a90565b9050919050565b6000602082019050818103600083015261306e81612ad6565b9050919050565b6000602082019050818103600083015261308e81612af9565b9050919050565b600060208201905081810360008301526130ae81612b1c565b9050919050565b600060208201905081810360008301526130ce81612b3f565b9050919050565b600060208201905081810360008301526130ee81612b85565b9050919050565b6000602082019050818103600083015261310e81612ba8565b9050919050565b6000602082019050818103600083015261312e81612c11565b9050919050565b600060208201905061314a6000830184612c57565b92915050565b60006040820190506131656000830185612c57565b6131726020830184612c57565b9392505050565b6000613183613194565b905061318f8282613424565b919050565b6000604051905090565b600067ffffffffffffffff8211156131b9576131b861355c565b5b6131c28261358b565b9050602081019050919050565b60008190508160005260206000209050919050565b600081519050919050565b600081519050919050565b600082825260208201905092915050565b600082825260208201905092915050565b600081905092915050565b6000613232826133a6565b915061323d836133a6565b9250827fffffffffffffffffffffffffffffffffffffffffffffffffffffffffffffffff03821115613272576132716134cf565b5b828201905092915050565b6000613288826133a6565b9150613293836133a6565b9250826132a3576132a26134fe565b5b828204905092915050565b60006132b9826133a6565b91506132c4836133a6565b9250817fffffffffffffffffffffffffffffffffffffffffffffffffffffffffffffffff04831182151516156132fd576132fc6134cf565b5b828202905092915050565b6000613313826133a6565b915061331e836133a6565b925082821015613331576133306134cf565b5b828203905092915050565b600061334782613386565b9050919050565b60008115159050919050565b60007fffffffff0000000000000000000000000000000000000000000000000000000082169050919050565b600073ffffffffffffffffffffffffffffffffffffffff82169050919050565b6000819050919050565b82818337600083830152505050565b60005b838110156133dd5780820151818401526020810190506133c2565b838111156133ec576000848401525b50505050565b6000600282049050600182168061340a57607f821691505b6020821081141561341e5761341d61352d565b5b50919050565b61342d8261358b565b810181811067ffffffffffffffff8211171561344c5761344b61355c565b5b80604052505050565b6000613460826133a6565b91507fffffffffffffffffffffffffffffffffffffffffffffffffffffffffffffffff821415613493576134926134cf565b5b600182019050919050565b60006134a9826133a6565b91506134b4836133a6565b9250826134c4576134c36134fe565b5b828206905092915050565b7f4e487b7100000000000000000000000000000000000000000000000000000000600052601160045260246000fd5b7f4e487b7100000000000000000000000000000000000000000000000000000000600052601260045260246000fd5b7f4e487b7100000000000000000000000000000000000000000000000000000000600052602260045260246000fd5b7f4e487b7100000000000000000000000000000000000000000000000000000000600052604160045260246000fd5b6000601f19601f8301169050919050565b7f4552433732313a207472616e7366657220746f206e6f6e20455243373231526560008201527f63656976657220696d706c656d656e7465720000000000000000000000000000602082015250565b7f4552433732313a207472616e736665722066726f6d20696e636f72726563742060008201527f6f776e6572000000000000000000000000000000000000000000000000000000602082015250565b7f4552433732313a20746f6b656e20616c7265616479206d696e74656400000000600082015250565b7f54484952445f574f524400000000000000000000000000000000000000000000600082015250565b7f4552433732313a207472616e7366657220746f20746865207a65726f2061646460008201527f7265737300000000000000000000000000000000000000000000000000000000602082015250565b7f4552433732313a20617070726f766520746f2063616c6c657200000000000000600082015250565b7f222c20226465736372697074696f6e223a20224120686967686c79206163636c60008201527f61696d656420636f6c6c656374696f6e206f66204e4654732e222c2022696d6160208201527f6765223a2022646174613a696d6167652f7376672b786d6c3b6261736536342c604082015250565b7f5345434f4e445f574f5244000000000000000000000000000000000000000000600082015250565b7f4552433732313a206f70657261746f7220717565727920666f72206e6f6e657860008201527f697374656e7420746f6b656e0000000000000000000000000000000000000000602082015250565b7f3c2f746578743e3c2f7376673e00000000000000000000000000000000000000600082015250565b7f4552433732313a20617070726f76652063616c6c6572206973206e6f74206f7760008201527f6e6572206e6f7220617070726f76656420666f7220616c6c0000000000000000602082015250565b7f4552433732313a2062616c616e636520717565727920666f7220746865207a6560008201527f726f206164647265737300000000000000000000000000000000000000000000602082015250565b7f4552433732313a206f776e657220717565727920666f72206e6f6e657869737460008201527f656e7420746f6b656e0000000000000000000000000000000000000000000000602082015250565b7f45524337323155524953746f726167653a2055524920736574206f66206e6f6e60008201527f6578697374656e7420746f6b656e000000000000000000000000000000000000602082015250565b7f227d000000000000000000000000000000000000000000000000000000000000600082015250565b7f4552433732313a206d696e7420746f20746865207a65726f2061646472657373600082015250565b7f45524337323155524953746f726167653a2055524920717565727920666f722060008201527f6e6f6e6578697374656e7420746f6b656e000000000000000000000000000000602082015250565b7f4552433732313a20617070726f76656420717565727920666f72206e6f6e657860008201527f697374656e7420746f6b656e0000000000000000000000000000000000000000602082015250565b7f4552433732314d657461646174613a2055524920717565727920666f72206e6f60008201527f6e6578697374656e7420746f6b656e0000000000000000000000000000000000602082015250565b7f7b226e616d65223a202200000000000000000000000000000000000000000000600082015250565b7f4d6178204c696d69742052656163686564000000000000000000000000000000600082015250565b7f4552433732313a20617070726f76616c20746f2063757272656e74206f776e6560008201527f7200000000000000000000000000000000000000000000000000000000000000602082015250565b7f46495253545f574f524400000000000000000000000000000000000000000000600082015250565b7f646174613a6170706c69636174696f6e2f6a736f6e3b6261736536342c000000600082015250565b7f4552433732313a207472616e736665722063616c6c6572206973206e6f74206f60008201527f776e6572206e6f7220617070726f766564000000000000000000000000000000602082015250565b7f434f4c4f52000000000000000000000000000000000000000000000000000000600082015250565b613c098161333c565b8114613c1457600080fd5b50565b613c208161334e565b8114613c2b57600080fd5b50565b613c378161335a565b8114613c4257600080fd5b50565b613c4e816133a6565b8114613c5957600080fd5b5056fe4142434445464748494a4b4c4d4e4f505152535455565758595a6162636465666768696a6b6c6d6e6f707172737475767778797a303132333435363738392b2f61204e4654207769746820494420257320686173206265656e206d696e74656420746f202573a26469706673582212208d2ec21cd1904247d6c942e156effd3fed77acdb6dd10e61e5ee401300fe7eae64736f6c634300080400333c73766720786d6c6e733d27687474703a2f2f7777772e77332e6f72672f323030302f73766727207072657365727665417370656374526174696f3d27784d696e594d696e206d656574272076696577426f783d273020302033353020333530273e3c7374796c653e2e62617365207b2066696c6c3a2077686974653b20666f6e742d66616d696c793a2073657269663b20666f6e742d73697a653a20323470783b207d3c2f7374796c653e3c726563742077696474683d273130302527206865696768743d2731303025272066696c6c3d27272f3e3c7465787420783d273530252720793d273530252720636c6173733d27626173652720646f6d696e616e742d626173656c696e653d276d6964646c652720746578742d616e63686f723d276d6964646c65273e",
  "linkReferences": {},
  "deployedLinkReferences": {}
}