{
    "_format": "hh-sol-artifact-1",
    "contractName": "MyEpicNFT",
    "sourceName": "contracts/MyEpicNFT.sol",
    "abi": [
        {
            "inputs": [],
            "stateMutability": "nonpayable",
            "type": "constructor"
        },
        {
            "anonymous": false,
            "inputs": [
                {
                    "indexed": true,
                    "internalType": "address",
                    "name": "owner",
                    "type": "address"
                },
                {
                    "indexed": true,
                    "internalType": "address",
                    "name": "approved",
                    "type": "address"
                },
                {
                    "indexed": true,
                    "internalType": "uint256",
                    "name": "tokenId",
                    "type": "uint256"
                }
            ],
            "name": "Approval",
            "type": "event"
        },
        {
            "anonymous": false,
            "inputs": [
                {
                    "indexed": true,
                    "internalType": "address",
                    "name": "owner",
                    "type": "address"
                },
                {
                    "indexed": true,
                    "internalType": "address",
                    "name": "operator",
                    "type": "address"
                },
                {
                    "indexed": false,
                    "internalType": "bool",
                    "name": "approved",
                    "type": "bool"
                }
            ],
            "name": "ApprovalForAll",
            "type": "event"
        },
        {
            "anonymous": false,
            "inputs": [
                {
                    "indexed": false,
                    "internalType": "address",
                    "name": "sender",
                    "type": "address"
                },
                {
                    "indexed": false,
                    "internalType": "uint256",
                    "name": "tokenID",
                    "type": "uint256"
                }
            ],
            "name": "NewEpicNFTMinted",
            "type": "event"
        },
        {
            "anonymous": false,
            "inputs": [
                {
                    "indexed": true,
                    "internalType": "address",
                    "name": "from",
                    "type": "address"
                },
                {
                    "indexed": true,
                    "internalType": "address",
                    "name": "to",
                    "type": "address"
                },
                {
                    "indexed": true,
                    "internalType": "uint256",
                    "name": "tokenId",
                    "type": "uint256"
                }
            ],
            "name": "Transfer",
            "type": "event"
        },
        {
            "anonymous": false,
            "inputs": [
                {
                    "indexed": false,
                    "internalType": "uint256",
                    "name": "maxSupply",
                    "type": "uint256"
                },
                {
                    "indexed": false,
                    "internalType": "uint256",
                    "name": "currentSupply",
                    "type": "uint256"
                }
            ],
            "name": "getTotalNFTsMintedSoFar",
            "type": "event"
        },
        {
            "inputs": [
                {
                    "internalType": "address",
                    "name": "to",
                    "type": "address"
                },
                {
                    "internalType": "uint256",
                    "name": "tokenId",
                    "type": "uint256"
                }
            ],
            "name": "approve",
            "outputs": [],
            "stateMutability": "nonpayable",
            "type": "function"
        },
        {
            "inputs": [
                {
                    "internalType": "address",
                    "name": "owner",
                    "type": "address"
                }
            ],
            "name": "balanceOf",
            "outputs": [
                {
                    "internalType": "uint256",
                    "name": "",
                    "type": "uint256"
                }
            ],
            "stateMutability": "view",
            "type": "function"
        },
        {
            "inputs": [
                {
                    "internalType": "uint256",
                    "name": "tokenId",
                    "type": "uint256"
                }
            ],
            "name": "getApproved",
            "outputs": [
                {
                    "internalType": "address",
                    "name": "",
                    "type": "address"
                }
            ],
            "stateMutability": "view",
            "type": "function"
        },
        {
            "inputs": [],
            "name": "getCurrentTotalNFTs",
            "outputs": [
                {
                    "internalType": "uint256",
                    "name": "",
                    "type": "uint256"
                }
            ],
            "stateMutability": "view",
            "type": "function"
        },
        {
            "inputs": [],
            "name": "getTotalNFTs",
            "outputs": [
                {
                    "internalType": "uint256",
                    "name": "",
                    "type": "uint256"
                }
            ],
            "stateMutability": "view",
            "type": "function"
        },
        {
            "inputs": [
                {
                    "internalType": "address",
                    "name": "owner",
                    "type": "address"
                },
                {
                    "internalType": "address",
                    "name": "operator",
                    "type": "address"
                }
            ],
            "name": "isApprovedForAll",
            "outputs": [
                {
                    "internalType": "bool",
                    "name": "",
                    "type": "bool"
                }
            ],
            "stateMutability": "view",
            "type": "function"
        },
        {
            "inputs": [],
            "name": "makeEpicNFT",
            "outputs": [],
            "stateMutability": "nonpayable",
            "type": "function"
        },
        {
            "inputs": [],
            "name": "name",
            "outputs": [
                {
                    "internalType": "string",
                    "name": "",
                    "type": "string"
                }
            ],
            "stateMutability": "view",
            "type": "function"
        },
        {
            "inputs": [
                {
                    "internalType": "uint256",
                    "name": "tokenId",
                    "type": "uint256"
                }
            ],
            "name": "ownerOf",
            "outputs": [
                {
                    "internalType": "address",
                    "name": "",
                    "type": "address"
                }
            ],
            "stateMutability": "view",
            "type": "function"
        },
        {
            "inputs": [
                {
                    "internalType": "uint256",
                    "name": "_tokenid",
                    "type": "uint256"
                }
            ],
            "name": "pickRandomFirstWord",
            "outputs": [
                {
                    "internalType": "string",
                    "name": "",
                    "type": "string"
                }
            ],
            "stateMutability": "view",
            "type": "function"
        },
        {
            "inputs": [
                {
                    "internalType": "uint256",
                    "name": "tokenId",
                    "type": "uint256"
                }
            ],
            "name": "pickRandomSecondWord",
            "outputs": [
                {
                    "internalType": "string",
                    "name": "",
                    "type": "string"
                }
            ],
            "stateMutability": "view",
            "type": "function"
        },
        {
            "inputs": [
                {
                    "internalType": "uint256",
                    "name": "tokenId",
                    "type": "uint256"
                }
            ],
            "name": "pickRandomThirdWord",
            "outputs": [
                {
                    "internalType": "string",
                    "name": "",
                    "type": "string"
                }
            ],
            "stateMutability": "view",
            "type": "function"
        },
        {
            "inputs": [
                {
                    "internalType": "address",
                    "name": "from",
                    "type": "address"
                },
                {
                    "internalType": "address",
                    "name": "to",
                    "type": "address"
                },
                {
                    "internalType": "uint256",
                    "name": "tokenId",
                    "type": "uint256"
                }
            ],
            "name": "safeTransferFrom",
            "outputs": [],
            "stateMutability": "nonpayable",
            "type": "function"
        },
        {
            "inputs": [
                {
                    "internalType": "address",
                    "name": "from",
                    "type": "address"
                },
                {
                    "internalType": "address",
                    "name": "to",
                    "type": "address"
                },
                {
                    "internalType": "uint256",
                    "name": "tokenId",
                    "type": "uint256"
                },
                {
                    "internalType": "bytes",
                    "name": "_data",
                    "type": "bytes"
                }
            ],
            "name": "safeTransferFrom",
            "outputs": [],
            "stateMutability": "nonpayable",
            "type": "function"
        },
        {
            "inputs": [
                {
                    "internalType": "address",
                    "name": "operator",
                    "type": "address"
                },
                {
                    "internalType": "bool",
                    "name": "approved",
                    "type": "bool"
                }
            ],
            "name": "setApprovalForAll",
            "outputs": [],
            "stateMutability": "nonpayable",
            "type": "function"
        },
        {
            "inputs": [
                {
                    "internalType": "bytes4",
                    "name": "interfaceId",
                    "type": "bytes4"
                }
            ],
            "name": "supportsInterface",
            "outputs": [
                {
                    "internalType": "bool",
                    "name": "",
                    "type": "bool"
                }
            ],
            "stateMutability": "view",
            "type": "function"
        },
        {
            "inputs": [],
            "name": "symbol",
            "outputs": [
                {
                    "internalType": "string",
                    "name": "",
                    "type": "string"
                }
            ],
            "stateMutability": "view",
            "type": "function"
        },
        {
            "inputs": [
                {
                    "internalType": "uint256",
                    "name": "tokenId",
                    "type": "uint256"
                }
            ],
            "name": "tokenURI",
            "outputs": [
                {
                    "internalType": "string",
                    "name": "",
                    "type": "string"
                }
            ],
            "stateMutability": "view",
            "type": "function"
        },
        {
            "inputs": [
                {
                    "internalType": "address",
                    "name": "from",
                    "type": "address"
                },
                {
                    "internalType": "address",
                    "name": "to",
                    "type": "address"
                },
                {
                    "internalType": "uint256",
                    "name": "tokenId",
                    "type": "uint256"
                }
            ],
            "name": "transferFrom",
            "outputs": [],
            "stateMutability": "nonpayable",
            "type": "function"
        }
    ],
    "bytecode": "0x6080604052600a60075560405180610160016040528061012f81526020016200446761012f9139600890805190602001906200003d92919062000683565b506040518060c001604052806040518060400160405280600581526020017f50697a7a6100000000000000000000000000000000000000000000000000000081525081526020016040518060400160405280600681526020017f427572676572000000000000000000000000000000000000000000000000000081525081526020016040518060400160405280600581526020017f526f6c6c7300000000000000000000000000000000000000000000000000000081525081526020016040518060400160405280600681526020017f4472696e6b73000000000000000000000000000000000000000000000000000081525081526020016040518060400160405280600681526020017f4e6163686f73000000000000000000000000000000000000000000000000000081525081526020016040518060400160405280600581526020017f42726561640000000000000000000000000000000000000000000000000000008152508152506009906006620001bb92919062000714565b506040518060c001604052806040518060400160405280600881526020017f506f72747567616c00000000000000000000000000000000000000000000000081525081526020016040518060400160405280600581526020017f4974616c7900000000000000000000000000000000000000000000000000000081525081526020016040518060400160405280600781526020017f4765726d616e790000000000000000000000000000000000000000000000000081525081526020016040518060400160405280600981526020017f417267656e74696e61000000000000000000000000000000000000000000000081525081526020016040518060400160405280600581526020017f57616c657300000000000000000000000000000000000000000000000000000081525081526020016040518060400160405280600681526020017f4272617a696c0000000000000000000000000000000000000000000000000000815250815250600a9060066200033992919062000714565b506040518060c001604052806040518060400160405280600781526020017f526f6e616c646f0000000000000000000000000000000000000000000000000081525081526020016040518060400160405280600781526020017f426f6e756363690000000000000000000000000000000000000000000000000081525081526020016040518060400160405280600681526020017f4d756c6c6572000000000000000000000000000000000000000000000000000081525081526020016040518060400160405280600581526020017f4d6573736900000000000000000000000000000000000000000000000000000081525081526020016040518060400160405280600481526020017f42616c650000000000000000000000000000000000000000000000000000000081525081526020016040518060400160405280600681526020017f4e65796d61720000000000000000000000000000000000000000000000000000815250815250600b906006620004b792919062000714565b50348015620004c557600080fd5b506040518060400160405280600881526020017f44616b73684e46540000000000000000000000000000000000000000000000008152506040518060400160405280600581526020017f44414b534800000000000000000000000000000000000000000000000000000081525081600090805190602001906200054a92919062000683565b5080600190805190602001906200056392919062000683565b505050620005b16040518060400160405280601881526020017f54686973206973206d79204e465420436f6e7472616374210000000000000000815250620005b760201b620011ae1760201c565b62000935565b6200065781604051602401620005ce919062000849565b6040516020818303038152906040527f41304fac000000000000000000000000000000000000000000000000000000007bffffffffffffffffffffffffffffffffffffffffffffffffffffffff19166020820180517bffffffffffffffffffffffffffffffffffffffffffffffffffffffff83818316178352505050506200065a60201b60201c565b50565b60008151905060006a636f6e736f6c652e6c6f679050602083016000808483855afa5050505050565b8280546200069190620008bf565b90600052602060002090601f016020900481019282620006b5576000855562000701565b82601f10620006d057805160ff191683800117855562000701565b8280016001018555821562000701579182015b8281111562000700578251825591602001919060010190620006e3565b5b5090506200071091906200077b565b5090565b82805482825590600052602060002090810192821562000768579160200282015b82811115620007675782518290805190602001906200075692919062000683565b509160200191906001019062000735565b5b5090506200077791906200079a565b5090565b5b80821115620007965760008160009055506001016200077c565b5090565b5b80821115620007be5760008181620007b49190620007c2565b506001016200079b565b5090565b508054620007d090620008bf565b6000825580601f10620007e4575062000805565b601f0160209004906000526020600020908101906200080491906200077b565b5b50565b600062000815826200086d565b62000821818562000878565b93506200083381856020860162000889565b6200083e8162000924565b840191505092915050565b6000602082019050818103600083015262000865818462000808565b905092915050565b600081519050919050565b600082825260208201905092915050565b60005b83811015620008a95780820151818401526020810190506200088c565b83811115620008b9576000848401525b50505050565b60006002820490506001821680620008d857607f821691505b60208210811415620008ef57620008ee620008f5565b5b50919050565b7f4e487b7100000000000000000000000000000000000000000000000000000000600052602260045260246000fd5b6000601f19601f8301169050919050565b613b2280620009456000396000f3fe608060405234801561001057600080fd5b50600436106101215760003560e01c80636352211e116100ad578063b71eafc811610071578063b71eafc81461031a578063b88d4fde14610338578063c575757a14610354578063c87b56dd14610384578063e985e9c5146103b457610121565b80636352211e1461025057806370a082311461028057806395d89b41146102b0578063a22cb465146102ce578063b187301f146102ea57610121565b806323b872dd116100f457806323b872dd146101c05780632de38d68146101dc57806330bdb3511461020c57806342842e0e1461022a57806362b41f491461024657610121565b806301ffc9a71461012657806306fdde0314610156578063081812fc14610174578063095ea7b3146101a4575b600080fd5b610140600480360381019061013b91906125a6565b6103e4565b60405161014d9190612ced565b60405180910390f35b61015e6104c6565b60405161016b9190612d08565b60405180910390f35b61018e600480360381019061018991906125f8565b610558565b60405161019b9190612c5d565b60405180910390f35b6101be60048036038101906101b9919061256a565b6105dd565b005b6101da60048036038101906101d59190612464565b6106f5565b005b6101f660048036038101906101f191906125f8565b610755565b6040516102039190612d08565b60405180910390f35b610214610873565b6040516102219190612f88565b60405180910390f35b610244600480360381019061023f9190612464565b61087d565b005b61024e61089d565b005b61026a600480360381019061026591906125f8565b610b07565b6040516102779190612c5d565b60405180910390f35b61029a600480360381019061029591906123ff565b610bb9565b6040516102a79190612f88565b60405180910390f35b6102b8610c71565b6040516102c59190612d08565b60405180910390f35b6102e860048036038101906102e3919061252e565b610d03565b005b61030460048036038101906102ff91906125f8565b610d19565b6040516103119190612d08565b60405180910390f35b610322610e37565b60405161032f9190612f88565b60405180910390f35b610352600480360381019061034d91906124b3565b610e48565b005b61036e600480360381019061036991906125f8565b610eaa565b60405161037b9190612d08565b60405180910390f35b61039e600480360381019061039991906125f8565b610fc8565b6040516103ab9190612d08565b60405180910390f35b6103ce60048036038101906103c99190612428565b61111a565b6040516103db9190612ced565b60405180910390f35b60007f80ac58cd000000000000000000000000000000000000000000000000000000007bffffffffffffffffffffffffffffffffffffffffffffffffffffffff1916827bffffffffffffffffffffffffffffffffffffffffffffffffffffffff191614806104af57507f5b5e139f000000000000000000000000000000000000000000000000000000007bffffffffffffffffffffffffffffffffffffffffffffffffffffffff1916827bffffffffffffffffffffffffffffffffffffffffffffffffffffffff1916145b806104bf57506104be82611247565b5b9050919050565b6060600080546104d590613245565b80601f016020809104026020016040519081016040528092919081815260200182805461050190613245565b801561054e5780601f106105235761010080835404028352916020019161054e565b820191906000526020600020905b81548152906001019060200180831161053157829003601f168201915b5050505050905090565b6000610563826112b1565b6105a2576040517f08c379a000000000000000000000000000000000000000000000000000000000815260040161059990612ee8565b60405180910390fd5b6004600083815260200190815260200160002060009054906101000a900473ffffffffffffffffffffffffffffffffffffffff169050919050565b60006105e882610b07565b90508073ffffffffffffffffffffffffffffffffffffffff168373ffffffffffffffffffffffffffffffffffffffff161415610659576040517f08c379a000000000000000000000000000000000000000000000000000000000815260040161065090612f48565b60405180910390fd5b8073ffffffffffffffffffffffffffffffffffffffff1661067861131d565b73ffffffffffffffffffffffffffffffffffffffff1614806106a757506106a6816106a161131d565b61111a565b5b6106e6576040517f08c379a00000000000000000000000000000000000000000000000000000000081526004016106dd90612e28565b60405180910390fd5b6106f08383611325565b505050565b61070661070061131d565b826113de565b610745576040517f08c379a000000000000000000000000000000000000000000000000000000000815260040161073c90612f68565b60405180910390fd5b6107508383836114bc565b505050565b6060600061078961076584611723565b6040516020016107759190612c19565b6040516020818303038152906040526118d0565b90506009805490508161079c91906132f1565b9050600981815481106107d8577f4e487b7100000000000000000000000000000000000000000000000000000000600052603260045260246000fd5b9060005260206000200180546107ed90613245565b80601f016020809104026020016040519081016040528092919081815260200182805461081990613245565b80156108665780601f1061083b57610100808354040283529160200191610866565b820191906000526020600020905b81548152906001019060200180831161084957829003601f168201915b5050505050915050919050565b6000600754905090565b61089883838360405180602001604052806000815250610e48565b505050565b60006108a9600c611903565b905060075481106108ef576040517f08c379a00000000000000000000000000000000000000000000000000000000081526004016108e690612f28565b60405180910390fd5b60006108fa82610755565b9050600061090783610d19565b9050600061091484610eaa565b9050600083838360405160200161092d93929190612b16565b6040516020818303038152906040529050600060088585856040516020016109589493929190612b47565b6040516020818303038152906040529050600061099d8361097884611911565b604051602001610989929190612bd4565b604051602081830303815290604052611911565b90506000816040516020016109b29190612c3b565b6040516020818303038152906040529050610a016040518060400160405280601581526020017f0a2d2d2d2d2d2d2d2d2d2d2d2d2d2d2d2d2d2d2d2d00000000000000000000008152506111ae565b610a0a816111ae565b610a486040518060400160405280601581526020017f2d2d2d2d2d2d2d2d2d2d2d2d2d2d2d2d2d2d2d2d0a00000000000000000000008152506111ae565b610a523389611a9b565b610a5c8882611ab9565b610a7f604051806060016040528060268152602001613ac7602691398933611b2d565b7febb98688741ffa4c7589bf325de30cf7becb63de567842e1ccdb6cb949fdc82c3389604051610ab0929190612cc4565b60405180910390a17f813268505ad13bd9105919c2378c0326d0aca78e5fd42ee3ff7028a390409ec360075489604051610aeb929190612fa3565b60405180910390a1610afd600c611bcc565b5050505050505050565b6000806002600084815260200190815260200160002060009054906101000a900473ffffffffffffffffffffffffffffffffffffffff169050600073ffffffffffffffffffffffffffffffffffffffff168173ffffffffffffffffffffffffffffffffffffffff161415610bb0576040517f08c379a0000000000000000000000000000000000000000000000000000000008152600401610ba790612e68565b60405180910390fd5b80915050919050565b60008073ffffffffffffffffffffffffffffffffffffffff168273ffffffffffffffffffffffffffffffffffffffff161415610c2a576040517f08c379a0000000000000000000000000000000000000000000000000000000008152600401610c2190612e48565b60405180910390fd5b600360008373ffffffffffffffffffffffffffffffffffffffff1673ffffffffffffffffffffffffffffffffffffffff168152602001908152602001600020549050919050565b606060018054610c8090613245565b80601f0160208091040260200160405190810160405280929190818152602001828054610cac90613245565b8015610cf95780601f10610cce57610100808354040283529160200191610cf9565b820191906000526020600020905b815481529060010190602001808311610cdc57829003601f168201915b5050505050905090565b610d15610d0e61131d565b8383611be2565b5050565b60606000610d4d610d2984611723565b604051602001610d399190612bb2565b6040516020818303038152906040526118d0565b9050600a8054905081610d6091906132f1565b9050600a8181548110610d9c577f4e487b7100000000000000000000000000000000000000000000000000000000600052603260045260246000fd5b906000526020600020018054610db190613245565b80601f0160208091040260200160405190810160405280929190818152602001828054610ddd90613245565b8015610e2a5780601f10610dff57610100808354040283529160200191610e2a565b820191906000526020600020905b815481529060010190602001808311610e0d57829003601f168201915b5050505050915050919050565b6000610e43600c611903565b905090565b610e59610e5361131d565b836113de565b610e98576040517f08c379a0000000000000000000000000000000000000000000000000000000008152600401610e8f90612f68565b60405180910390fd5b610ea484848484611d4f565b50505050565b60606000610ede610eba84611723565b604051602001610eca9190612b90565b6040516020818303038152906040526118d0565b9050600b8054905081610ef191906132f1565b9050600b8181548110610f2d577f4e487b7100000000000000000000000000000000000000000000000000000000600052603260045260246000fd5b906000526020600020018054610f4290613245565b80601f0160208091040260200160405190810160405280929190818152602001828054610f6e90613245565b8015610fbb5780601f10610f9057610100808354040283529160200191610fbb565b820191906000526020600020905b815481529060010190602001808311610f9e57829003601f168201915b5050505050915050919050565b6060610fd3826112b1565b611012576040517f08c379a000000000000000000000000000000000000000000000000000000000815260040161100990612ec8565b60405180910390fd5b600060066000848152602001908152602001600020805461103290613245565b80601f016020809104026020016040519081016040528092919081815260200182805461105e90613245565b80156110ab5780601f10611080576101008083540402835291602001916110ab565b820191906000526020600020905b81548152906001019060200180831161108e57829003601f168201915b5050505050905060006110bc611dab565b90506000815114156110d2578192505050611115565b6000825111156111075780826040516020016110ef929190612af2565b60405160208183030381529060405292505050611115565b61111084611dc2565b925050505b919050565b6000600560008473ffffffffffffffffffffffffffffffffffffffff1673ffffffffffffffffffffffffffffffffffffffff16815260200190815260200160002060008373ffffffffffffffffffffffffffffffffffffffff1673ffffffffffffffffffffffffffffffffffffffff16815260200190815260200160002060009054906101000a900460ff16905092915050565b611244816040516024016111c29190612d08565b6040516020818303038152906040527f41304fac000000000000000000000000000000000000000000000000000000007bffffffffffffffffffffffffffffffffffffffffffffffffffffffff19166020820180517bffffffffffffffffffffffffffffffffffffffffffffffffffffffff8381831617835250505050611e69565b50565b60007f01ffc9a7000000000000000000000000000000000000000000000000000000007bffffffffffffffffffffffffffffffffffffffffffffffffffffffff1916827bffffffffffffffffffffffffffffffffffffffffffffffffffffffff1916149050919050565b60008073ffffffffffffffffffffffffffffffffffffffff166002600084815260200190815260200160002060009054906101000a900473ffffffffffffffffffffffffffffffffffffffff1673ffffffffffffffffffffffffffffffffffffffff1614159050919050565b600033905090565b816004600083815260200190815260200160002060006101000a81548173ffffffffffffffffffffffffffffffffffffffff021916908373ffffffffffffffffffffffffffffffffffffffff160217905550808273ffffffffffffffffffffffffffffffffffffffff1661139883610b07565b73ffffffffffffffffffffffffffffffffffffffff167f8c5be1e5ebec7d5bd14f71427d1e84f3dd0314c0f7b2291e5b200ac8c7c3b92560405160405180910390a45050565b60006113e9826112b1565b611428576040517f08c379a000000000000000000000000000000000000000000000000000000000815260040161141f90612e08565b60405180910390fd5b600061143383610b07565b90508073ffffffffffffffffffffffffffffffffffffffff168473ffffffffffffffffffffffffffffffffffffffff1614806114755750611474818561111a565b5b806114b357508373ffffffffffffffffffffffffffffffffffffffff1661149b84610558565b73ffffffffffffffffffffffffffffffffffffffff16145b91505092915050565b8273ffffffffffffffffffffffffffffffffffffffff166114dc82610b07565b73ffffffffffffffffffffffffffffffffffffffff1614611532576040517f08c379a000000000000000000000000000000000000000000000000000000000815260040161152990612d88565b60405180910390fd5b600073ffffffffffffffffffffffffffffffffffffffff168273ffffffffffffffffffffffffffffffffffffffff1614156115a2576040517f08c379a000000000000000000000000000000000000000000000000000000000815260040161159990612dc8565b60405180910390fd5b6115ad838383611e92565b6115b8600082611325565b6001600360008573ffffffffffffffffffffffffffffffffffffffff1673ffffffffffffffffffffffffffffffffffffffff1681526020019081526020016000206000828254611608919061315b565b925050819055506001600360008473ffffffffffffffffffffffffffffffffffffffff1673ffffffffffffffffffffffffffffffffffffffff168152602001908152602001600020600082825461165f919061307a565b92505081905550816002600083815260200190815260200160002060006101000a81548173ffffffffffffffffffffffffffffffffffffffff021916908373ffffffffffffffffffffffffffffffffffffffff160217905550808273ffffffffffffffffffffffffffffffffffffffff168473ffffffffffffffffffffffffffffffffffffffff167fddf252ad1be2c89b69c2b068fc378daa952ba7f163c4a11628f55a4df523b3ef60405160405180910390a461171e838383611e97565b505050565b6060600082141561176b576040518060400160405280600181526020017f300000000000000000000000000000000000000000000000000000000000000081525090506118cb565b600082905060005b6000821461179d578080611786906132a8565b915050600a8261179691906130d0565b9150611773565b60008167ffffffffffffffff8111156117df577f4e487b7100000000000000000000000000000000000000000000000000000000600052604160045260246000fd5b6040519080825280601f01601f1916602001820160405280156118115781602001600182028036833780820191505090505b5090505b600085146118c45760018261182a919061315b565b9150600a8561183991906132f1565b6030611845919061307a565b60f81b818381518110611881577f4e487b7100000000000000000000000000000000000000000000000000000000600052603260045260246000fd5b60200101907effffffffffffffffffffffffffffffffffffffffffffffffffffffffffffff1916908160001a905350600a856118bd91906130d0565b9450611815565b8093505050505b919050565b6000816040516020016118e39190612adb565b6040516020818303038152906040528051906020012060001c9050919050565b600081600001549050919050565b606060008251141561193457604051806020016040528060008152509050611a96565b6000604051806060016040528060408152602001613a876040913990506000600360028551611963919061307a565b61196d91906130d0565b60046119799190613101565b67ffffffffffffffff8111156119b8577f4e487b7100000000000000000000000000000000000000000000000000000000600052604160045260246000fd5b6040519080825280601f01601f1916602001820160405280156119ea5781602001600182028036833780820191505090505b509050600182016020820185865187015b80821015611a56576003820191508151603f8160121c168501518453600184019350603f81600c1c168501518453600184019350603f8160061c168501518453600184019350603f81168501518453600184019350506119fb565b5050600386510660018114611a725760028114611a8557611a8d565b603d6001830353603d6002830353611a8d565b603d60018303535b50505080925050505b919050565b611ab5828260405180602001604052806000815250611e9c565b5050565b611ac2826112b1565b611b01576040517f08c379a0000000000000000000000000000000000000000000000000000000008152600401611af890612e88565b60405180910390fd5b80600660008481526020019081526020016000209080519060200190611b2892919061228b565b505050565b611bc7838383604051602401611b4593929190612d2a565b6040516020818303038152906040527fe3849f79000000000000000000000000000000000000000000000000000000007bffffffffffffffffffffffffffffffffffffffffffffffffffffffff19166020820180517bffffffffffffffffffffffffffffffffffffffffffffffffffffffff8381831617835250505050611e69565b505050565b6001816000016000828254019250508190555050565b8173ffffffffffffffffffffffffffffffffffffffff168373ffffffffffffffffffffffffffffffffffffffff161415611c51576040517f08c379a0000000000000000000000000000000000000000000000000000000008152600401611c4890612de8565b60405180910390fd5b80600560008573ffffffffffffffffffffffffffffffffffffffff1673ffffffffffffffffffffffffffffffffffffffff16815260200190815260200160002060008473ffffffffffffffffffffffffffffffffffffffff1673ffffffffffffffffffffffffffffffffffffffff16815260200190815260200160002060006101000a81548160ff0219169083151502179055508173ffffffffffffffffffffffffffffffffffffffff168373ffffffffffffffffffffffffffffffffffffffff167f17307eab39ab6107e8899845ad3d59bd9653f200f220920489ca2b5937696c3183604051611d429190612ced565b60405180910390a3505050565b611d5a8484846114bc565b611d6684848484611ef7565b611da5576040517f08c379a0000000000000000000000000000000000000000000000000000000008152600401611d9c90612d68565b60405180910390fd5b50505050565b606060405180602001604052806000815250905090565b6060611dcd826112b1565b611e0c576040517f08c379a0000000000000000000000000000000000000000000000000000000008152600401611e0390612f08565b60405180910390fd5b6000611e16611dab565b90506000815111611e365760405180602001604052806000815250611e61565b80611e4084611723565b604051602001611e51929190612af2565b6040516020818303038152906040525b915050919050565b60008151905060006a636f6e736f6c652e6c6f679050602083016000808483855afa5050505050565b505050565b505050565b611ea6838361208e565b611eb36000848484611ef7565b611ef2576040517f08c379a0000000000000000000000000000000000000000000000000000000008152600401611ee990612d68565b60405180910390fd5b505050565b6000611f188473ffffffffffffffffffffffffffffffffffffffff16612268565b15612081578373ffffffffffffffffffffffffffffffffffffffff1663150b7a02611f4161131d565b8786866040518563ffffffff1660e01b8152600401611f639493929190612c78565b602060405180830381600087803b158015611f7d57600080fd5b505af1925050508015611fae57506040513d601f19601f82011682018060405250810190611fab91906125cf565b60015b612031573d8060008114611fde576040519150601f19603f3d011682016040523d82523d6000602084013e611fe3565b606091505b50600081511415612029576040517f08c379a000000000000000000000000000000000000000000000000000000000815260040161202090612d68565b60405180910390fd5b805181602001fd5b63150b7a0260e01b7bffffffffffffffffffffffffffffffffffffffffffffffffffffffff1916817bffffffffffffffffffffffffffffffffffffffffffffffffffffffff191614915050612086565b600190505b949350505050565b600073ffffffffffffffffffffffffffffffffffffffff168273ffffffffffffffffffffffffffffffffffffffff1614156120fe576040517f08c379a00000000000000000000000000000000000000000000000000000000081526004016120f590612ea8565b60405180910390fd5b612107816112b1565b15612147576040517f08c379a000000000000000000000000000000000000000000000000000000000815260040161213e90612da8565b60405180910390fd5b61215360008383611e92565b6001600360008473ffffffffffffffffffffffffffffffffffffffff1673ffffffffffffffffffffffffffffffffffffffff16815260200190815260200160002060008282546121a3919061307a565b92505081905550816002600083815260200190815260200160002060006101000a81548173ffffffffffffffffffffffffffffffffffffffff021916908373ffffffffffffffffffffffffffffffffffffffff160217905550808273ffffffffffffffffffffffffffffffffffffffff16600073ffffffffffffffffffffffffffffffffffffffff167fddf252ad1be2c89b69c2b068fc378daa952ba7f163c4a11628f55a4df523b3ef60405160405180910390a461226460008383611e97565b5050565b6000808273ffffffffffffffffffffffffffffffffffffffff163b119050919050565b82805461229790613245565b90600052602060002090601f0160209004810192826122b95760008555612300565b82601f106122d257805160ff1916838001178555612300565b82800160010185558215612300579182015b828111156122ff5782518255916020019190600101906122e4565b5b50905061230d9190612311565b5090565b5b8082111561232a576000816000905550600101612312565b5090565b600061234161233c84612ff1565b612fcc565b90508281526020810184848401111561235957600080fd5b612364848285613203565b509392505050565b60008135905061237b81613a2a565b92915050565b60008135905061239081613a41565b92915050565b6000813590506123a581613a58565b92915050565b6000815190506123ba81613a58565b92915050565b600082601f8301126123d157600080fd5b81356123e184826020860161232e565b91505092915050565b6000813590506123f981613a6f565b92915050565b60006020828403121561241157600080fd5b600061241f8482850161236c565b91505092915050565b6000806040838503121561243b57600080fd5b60006124498582860161236c565b925050602061245a8582860161236c565b9150509250929050565b60008060006060848603121561247957600080fd5b60006124878682870161236c565b93505060206124988682870161236c565b92505060406124a9868287016123ea565b9150509250925092565b600080600080608085870312156124c957600080fd5b60006124d78782880161236c565b94505060206124e88782880161236c565b93505060406124f9878288016123ea565b925050606085013567ffffffffffffffff81111561251657600080fd5b612522878288016123c0565b91505092959194509250565b6000806040838503121561254157600080fd5b600061254f8582860161236c565b925050602061256085828601612381565b9150509250929050565b6000806040838503121561257d57600080fd5b600061258b8582860161236c565b925050602061259c858286016123ea565b9150509250929050565b6000602082840312156125b857600080fd5b60006125c684828501612396565b91505092915050565b6000602082840312156125e157600080fd5b60006125ef848285016123ab565b91505092915050565b60006020828403121561260a57600080fd5b6000612618848285016123ea565b91505092915050565b61262a8161318f565b82525050565b612639816131a1565b82525050565b600061264a82613037565b612654818561304d565b9350612664818560208601613212565b61266d816133de565b840191505092915050565b600061268382613042565b61268d818561305e565b935061269d818560208601613212565b6126a6816133de565b840191505092915050565b60006126bc82613042565b6126c6818561306f565b93506126d6818560208601613212565b80840191505092915050565b600081546126ef81613245565b6126f9818661306f565b94506001821660008114612714576001811461272557612758565b60ff19831686528186019350612758565b61272e85613022565b60005b8381101561275057815481890152600182019150602081019050612731565b838801955050505b50505092915050565b600061276e60328361305e565b9150612779826133ef565b604082019050919050565b600061279160258361305e565b915061279c8261343e565b604082019050919050565b60006127b4601c8361305e565b91506127bf8261348d565b602082019050919050565b60006127d7600a8361306f565b91506127e2826134b6565b600a82019050919050565b60006127fa60248361305e565b9150612805826134df565b604082019050919050565b600061281d60198361305e565b91506128288261352e565b602082019050919050565b600061284060608361306f565b915061284b82613557565b606082019050919050565b6000612863600b8361306f565b915061286e826135cc565b600b82019050919050565b6000612886602c8361305e565b9150612891826135f5565b604082019050919050565b60006128a9600d8361306f565b91506128b482613644565b600d82019050919050565b60006128cc60388361305e565b91506128d78261366d565b604082019050919050565b60006128ef602a8361305e565b91506128fa826136bc565b604082019050919050565b600061291260298361305e565b915061291d8261370b565b604082019050919050565b6000612935602e8361305e565b91506129408261375a565b604082019050919050565b600061295860028361306f565b9150612963826137a9565b600282019050919050565b600061297b60208361305e565b9150612986826137d2565b602082019050919050565b600061299e60318361305e565b91506129a9826137fb565b604082019050919050565b60006129c1602c8361305e565b91506129cc8261384a565b604082019050919050565b60006129e4602f8361305e565b91506129ef82613899565b604082019050919050565b6000612a07600a8361306f565b9150612a12826138e8565b600a82019050919050565b6000612a2a60118361305e565b9150612a3582613911565b602082019050919050565b6000612a4d60218361305e565b9150612a588261393a565b604082019050919050565b6000612a70600a8361306f565b9150612a7b82613989565b600a82019050919050565b6000612a93601d8361306f565b9150612a9e826139b2565b601d82019050919050565b6000612ab660318361305e565b9150612ac1826139db565b604082019050919050565b612ad5816131f9565b82525050565b6000612ae782846126b1565b915081905092915050565b6000612afe82856126b1565b9150612b0a82846126b1565b91508190509392505050565b6000612b2282866126b1565b9150612b2e82856126b1565b9150612b3a82846126b1565b9150819050949350505050565b6000612b5382876126e2565b9150612b5f82866126b1565b9150612b6b82856126b1565b9150612b7782846126b1565b9150612b828261289c565b915081905095945050505050565b6000612b9b826127ca565b9150612ba782846126b1565b915081905092915050565b6000612bbd82612856565b9150612bc982846126b1565b915081905092915050565b6000612bdf826129fa565b9150612beb82856126b1565b9150612bf682612833565b9150612c0282846126b1565b9150612c0d8261294b565b91508190509392505050565b6000612c2482612a63565b9150612c3082846126b1565b915081905092915050565b6000612c4682612a86565b9150612c5282846126b1565b915081905092915050565b6000602082019050612c726000830184612621565b92915050565b6000608082019050612c8d6000830187612621565b612c9a6020830186612621565b612ca76040830185612acc565b8181036060830152612cb9818461263f565b905095945050505050565b6000604082019050612cd96000830185612621565b612ce66020830184612acc565b9392505050565b6000602082019050612d026000830184612630565b92915050565b60006020820190508181036000830152612d228184612678565b905092915050565b60006060820190508181036000830152612d448186612678565b9050612d536020830185612acc565b612d606040830184612621565b949350505050565b60006020820190508181036000830152612d8181612761565b9050919050565b60006020820190508181036000830152612da181612784565b9050919050565b60006020820190508181036000830152612dc1816127a7565b9050919050565b60006020820190508181036000830152612de1816127ed565b9050919050565b60006020820190508181036000830152612e0181612810565b9050919050565b60006020820190508181036000830152612e2181612879565b9050919050565b60006020820190508181036000830152612e41816128bf565b9050919050565b60006020820190508181036000830152612e61816128e2565b9050919050565b60006020820190508181036000830152612e8181612905565b9050919050565b60006020820190508181036000830152612ea181612928565b9050919050565b60006020820190508181036000830152612ec18161296e565b9050919050565b60006020820190508181036000830152612ee181612991565b9050919050565b60006020820190508181036000830152612f01816129b4565b9050919050565b60006020820190508181036000830152612f21816129d7565b9050919050565b60006020820190508181036000830152612f4181612a1d565b9050919050565b60006020820190508181036000830152612f6181612a40565b9050919050565b60006020820190508181036000830152612f8181612aa9565b9050919050565b6000602082019050612f9d6000830184612acc565b92915050565b6000604082019050612fb86000830185612acc565b612fc56020830184612acc565b9392505050565b6000612fd6612fe7565b9050612fe28282613277565b919050565b6000604051905090565b600067ffffffffffffffff82111561300c5761300b6133af565b5b613015826133de565b9050602081019050919050565b60008190508160005260206000209050919050565b600081519050919050565b600081519050919050565b600082825260208201905092915050565b600082825260208201905092915050565b600081905092915050565b6000613085826131f9565b9150613090836131f9565b9250827fffffffffffffffffffffffffffffffffffffffffffffffffffffffffffffffff038211156130c5576130c4613322565b5b828201905092915050565b60006130db826131f9565b91506130e6836131f9565b9250826130f6576130f5613351565b5b828204905092915050565b600061310c826131f9565b9150613117836131f9565b9250817fffffffffffffffffffffffffffffffffffffffffffffffffffffffffffffffff04831182151516156131505761314f613322565b5b828202905092915050565b6000613166826131f9565b9150613171836131f9565b92508282101561318457613183613322565b5b828203905092915050565b600061319a826131d9565b9050919050565b60008115159050919050565b60007fffffffff0000000000000000000000000000000000000000000000000000000082169050919050565b600073ffffffffffffffffffffffffffffffffffffffff82169050919050565b6000819050919050565b82818337600083830152505050565b60005b83811015613230578082015181840152602081019050613215565b8381111561323f576000848401525b50505050565b6000600282049050600182168061325d57607f821691505b6020821081141561327157613270613380565b5b50919050565b613280826133de565b810181811067ffffffffffffffff8211171561329f5761329e6133af565b5b80604052505050565b60006132b3826131f9565b91507fffffffffffffffffffffffffffffffffffffffffffffffffffffffffffffffff8214156132e6576132e5613322565b5b600182019050919050565b60006132fc826131f9565b9150613307836131f9565b92508261331757613316613351565b5b828206905092915050565b7f4e487b7100000000000000000000000000000000000000000000000000000000600052601160045260246000fd5b7f4e487b7100000000000000000000000000000000000000000000000000000000600052601260045260246000fd5b7f4e487b7100000000000000000000000000000000000000000000000000000000600052602260045260246000fd5b7f4e487b7100000000000000000000000000000000000000000000000000000000600052604160045260246000fd5b6000601f19601f8301169050919050565b7f4552433732313a207472616e7366657220746f206e6f6e20455243373231526560008201527f63656976657220696d706c656d656e7465720000000000000000000000000000602082015250565b7f4552433732313a207472616e736665722066726f6d20696e636f72726563742060008201527f6f776e6572000000000000000000000000000000000000000000000000000000602082015250565b7f4552433732313a20746f6b656e20616c7265616479206d696e74656400000000600082015250565b7f54484952445f574f524400000000000000000000000000000000000000000000600082015250565b7f4552433732313a207472616e7366657220746f20746865207a65726f2061646460008201527f7265737300000000000000000000000000000000000000000000000000000000602082015250565b7f4552433732313a20617070726f766520746f2063616c6c657200000000000000600082015250565b7f222c20226465736372697074696f6e223a20224120686967686c79206163636c60008201527f61696d656420636f6c6c656374696f6e206f66204e4654732e222c2022696d6160208201527f6765223a2022646174613a696d6167652f7376672b786d6c3b6261736536342c604082015250565b7f5345434f4e445f574f5244000000000000000000000000000000000000000000600082015250565b7f4552433732313a206f70657261746f7220717565727920666f72206e6f6e657860008201527f697374656e7420746f6b656e0000000000000000000000000000000000000000602082015250565b7f3c2f746578743e3c2f7376673e00000000000000000000000000000000000000600082015250565b7f4552433732313a20617070726f76652063616c6c6572206973206e6f74206f7760008201527f6e6572206e6f7220617070726f76656420666f7220616c6c0000000000000000602082015250565b7f4552433732313a2062616c616e636520717565727920666f7220746865207a6560008201527f726f206164647265737300000000000000000000000000000000000000000000602082015250565b7f4552433732313a206f776e657220717565727920666f72206e6f6e657869737460008201527f656e7420746f6b656e0000000000000000000000000000000000000000000000602082015250565b7f45524337323155524953746f726167653a2055524920736574206f66206e6f6e60008201527f6578697374656e7420746f6b656e000000000000000000000000000000000000602082015250565b7f227d000000000000000000000000000000000000000000000000000000000000600082015250565b7f4552433732313a206d696e7420746f20746865207a65726f2061646472657373600082015250565b7f45524337323155524953746f726167653a2055524920717565727920666f722060008201527f6e6f6e6578697374656e7420746f6b656e000000000000000000000000000000602082015250565b7f4552433732313a20617070726f76656420717565727920666f72206e6f6e657860008201527f697374656e7420746f6b656e0000000000000000000000000000000000000000602082015250565b7f4552433732314d657461646174613a2055524920717565727920666f72206e6f60008201527f6e6578697374656e7420746f6b656e0000000000000000000000000000000000602082015250565b7f7b226e616d65223a202200000000000000000000000000000000000000000000600082015250565b7f4d6178204c696d69742052656163686564000000000000000000000000000000600082015250565b7f4552433732313a20617070726f76616c20746f2063757272656e74206f776e6560008201527f7200000000000000000000000000000000000000000000000000000000000000602082015250565b7f46495253545f574f524400000000000000000000000000000000000000000000600082015250565b7f646174613a6170706c69636174696f6e2f6a736f6e3b6261736536342c000000600082015250565b7f4552433732313a207472616e736665722063616c6c6572206973206e6f74206f60008201527f776e6572206e6f7220617070726f766564000000000000000000000000000000602082015250565b613a338161318f565b8114613a3e57600080fd5b50565b613a4a816131a1565b8114613a5557600080fd5b50565b613a61816131ad565b8114613a6c57600080fd5b50565b613a78816131f9565b8114613a8357600080fd5b5056fe4142434445464748494a4b4c4d4e4f505152535455565758595a6162636465666768696a6b6c6d6e6f707172737475767778797a303132333435363738392b2f61204e4654207769746820494420257320686173206265656e206d696e74656420746f202573a264697066735822122058b96dd4123a6bdc4ed56aeca7b61488ef4348064c786effa314bba4df79ebf964736f6c634300080400333c73766720786d6c6e733d27687474703a2f2f7777772e77332e6f72672f323030302f73766727207072657365727665417370656374526174696f3d27784d696e594d696e206d656574272076696577426f783d273020302033353020333530273e3c7374796c653e2e62617365207b2066696c6c3a2077686974653b20666f6e742d66616d696c793a2073657269663b20666f6e742d73697a653a20323470783b207d3c2f7374796c653e3c726563742077696474683d273130302527206865696768743d2731303025272066696c6c3d27626c61636b27202f3e3c7465787420783d273530252720793d273530252720636c6173733d27626173652720646f6d696e616e742d626173656c696e653d276d6964646c652720746578742d616e63686f723d276d6964646c65273e",
    "linkReferences": {},
    "deployedLinkReferences": {}
}